:020000040800F2
:1000000000C00020D1540008B9070008BB07000851
:10001000BD070008BF070008C10700080000000076
:10002000000000000000000000000000C3070008FE
:10003000C507000800000000C7070008C90700083E
:1000400021550008215500082155000821550008B8
:1000500021550008215500082155000821550008A8
:100060002155000821550008215500082155000898
:100070002155000821550008215500082155000888
:100080002155000821550008215500082155000878
:100090002155000821550008215500082155000868
:1000A0002155000821550008215500082155000858
:1000B0002155000800000000000000002155000844
:1000C0002155000800000000000000002155000834
:1000D0000000000021550008215500080000000024
:1000E0002155000821550008000000000000000014
:1000F0000000000000000000000000000000000000
:100100000000000000000000000000002155000871
:1001100000000000000000002155000821550008E3
:1001200021550008215500082155000821550008D7
:100130002155000800000000000000000000000041
:1001400021550008215500082155000821550008B7
:1001500021550008215500082155000821550008A7
:100160002155000821550008215500080000000015
:100170002155000821550008000000000000000083
:1001800021550008215500082155000800000000F5
:1001900010B5054C237833B9044B13B10448AFF3C1
:1001A00000800123237010BDA0000020000000008B
:1001B000645E000808B5034B1BB103490348AFF365
:1001C000008008BD00000000A4000020645E00085C
:1001D000034613F8012B002AFBD1181A0138704787
:1001E00001F0FF01102A2BDB10F0070F08D010F8E8
:1001F000013B013A8B422DD010F0070F42B3F6D1EC
:10020000F0B441EA012141EA014122F007047FF004
:1002100000070023F0E80256083C85EA010586EA5B
:10022000010685FA47F5A3FA87F586FA47F6A5FA97
:1002300087F68EB9EED1F0BC01F0FF0102F00702A3
:1002400032B110F8013B013A83EA010313B1F8D14E
:100250000020704701387047002D06BF354603382F
:10026000073815F0010F07D1013015F4807F02BF68
:10027000013015F4C03F0130F0BC0138704700BFB9
:1002800053B94AB9002908BF00281CBF4FF0FF31FD
:100290004FF0FF3000F074B9ADF1080C6DE904CEF9
:1002A00000F006F8DDF804E0DDE9022304B0704751
:1002B0002DE9F047089D04468E46002B4DD18A4219
:1002C000944669D9B2FA82F252B101FA02F3C2F14C
:1002D000200120FA01F10CFA02FC41EA030E9440DD
:1002E0004FEA1C48210CBEFBF8F61FFA8CF708FBFE
:1002F00016E341EA034306FB07F199420AD91CEBD6
:10030000030306F1FF3080F01F81994240F21C8107
:10031000023E63445B1AA4B2B3FBF8F008FB10334F
:1003200044EA034400FB07F7A7420AD91CEB040484
:1003300000F1FF3380F00A81A74240F20781644454
:10034000023840EA0640E41B00261DB1D4400023D9
:10035000C5E900433146BDE8F0878B4209D9002D3D
:1003600000F0EF800026C5E9000130463146BDE8C7
:10037000F087B3FA83F6002E4AD18B4202D3824231
:1003800000F2F980841A61EB030301209E46002DE0
:10039000E0D0C5E9004EDDE702B9FFDEB2FA82F235
:1003A000002A40F09280A1EB0C014FEA1C471FFA93
:1003B0008CFE0126200CB1FBF7F307FB131140EA7A
:1003C00001410EFB03F0884208D91CEB010103F147
:1003D000FF3802D2884200F2CB804346091AA4B209
:1003E000B1FBF7F007FB101144EA01440EFB00FEDD
:1003F000A64508D91CEB040400F1FF3102D2A64542
:1004000000F2BB800846A4EB0E0440EA03409CE7E0
:10041000C6F12007B34022FA07FC4CEA030C20FA8D
:1004200007F401FA06F31C43F9404FEA1C4900FAAD
:1004300006F3B1FBF9F8200C1FFA8CFE09FB18112A
:1004400040EA014108FB0EF0884202FA06F20BD99D
:100450001CEB010108F1FF3A80F08880884240F2ED
:100460008580A8F102086144091AA4B2B1FBF9F031
:1004700009FB101144EA014100FB0EFE8E4508D92C
:100480001CEB010100F1FF346CD28E456AD90238B1
:10049000614440EA0840A0FB0294A1EB0E01A14296
:1004A000C846A64656D353D05DB1B3EB080261EB04
:1004B0000E0101FA07F722FA06F3F1401F43C5E9DE
:1004C000007100263146BDE8F087C2F12003D84014
:1004D0000CFA02FC21FA03F3914001434FEA1C4756
:1004E0001FFA8CFEB3FBF7F007FB10360B0C43EA48
:1004F000064300FB0EF69E4204FA02F408D91CEBF8
:10050000030300F1FF382FD29E422DD902386344F5
:100510009B1B89B2B3FBF7F607FB163341EA034195
:1005200006FB0EF38B4208D91CEB010106F1FF38E4
:1005300016D28B4214D9023E6144C91A46EA0046DB
:1005400038E72E46284605E70646E3E61846F8E66D
:100550004B45A9D2B9EB020864EB0C0E0138A3E7B6
:100560004646EAE7204694E74046D1E7D0467BE797
:10057000023B614432E7304609E76444023842E70F
:10058000704700BF82B0064BDA6C42F00102DA64B9
:10059000DB6C03F001030193019B02B0704700BFC5
:1005A0000010024072B6FEE708B51148114B036017
:1005B000114B4360002383600122C26003614361E9
:1005C0008361C361036200F074FB50B900210848E5
:1005D00000F080FD38B90021054800F0A9FD20B9E0
:1005E00008BDFFF7DFFFFFF7DDFFFFF7DBFF00BF11
:1005F000BC00002000540040140D100008B50B484A
:100600000B4B03604FF4E133436000238360C3600E
:1006100003610C2242618361C3610362436202F0A1
:100620005EF900B908BDFFF7BDFF00BF1001002053
:100630000044004000B597B04422002105A804F012
:10064000A9FF0023009301930293039304934FF4B3
:10065000007001F0C7FDD0B91023059301230B935F
:1006600000230C9360220D920F9305A800F08CFEDE
:1006700078B90F2300930021019102910391049115
:10068000684601F0B7F930B917B05DF804FBFFF721
:1006900089FFFFF787FFFFF785FF000010B5ADF575
:1006A0007E7D00F099FDFFF7C5FFFFF76BFFFFF7B9
:1006B0007BFFFFF7A3FF4FF46872002116A804F038
:1006C00069FF52238DF8F03301248DF8F1434FF484
:1006D000C873ADF8F23316A803F0FDFB16A803F0BB
:1006E000A7FD214616A803F077FB48F2E80116A8FB
:1006F00003F0DAFC642116A803F0B0FB16A803F09F
:1007000017FE21E09DF80730002B3AD002A916A869
:1007100003F06BFE0246002837D1BDF9202092B2CB
:10072000214909A804F03EFF09A8FFF751FD4FF643
:10073000FF7382B209A91D4802F00AF816A803F057
:100740004BFE322000F06AFD00238DF807300DF1DA
:10075000070116A803F045FE02460028D2D014492E
:1007600009A804F01FFF09A8FFF732FD4FF6FF7339
:1007700082B209A90D4801F0EBFF642000F04EFDA4
:10078000E2E7052000F04AFDDEE70A4909A804F087
:1007900009FF09A8FFF71CFD4FF6FF7382B209A9F4
:1007A000024801F0D5FFC9E7945E0008100100205F
:1007B000805E0008A45E0008FEE7FEE7FEE7FEE7B5
:1007C000FEE770477047704708B500F015FD08BD9B
:1007D00082B00A4B1A6E42F001021A661A6E02F0DB
:1007E00001020092009A9A6D42F080529A659B6DC8
:1007F00003F080530193019B02B070470010024048
:1008000010B59CB0044600211791189119911A91C6
:100810001B91542202A804F0BDFE2268184B9A4294
:1008200001D01CB010BD4023029302A801F086FA4B
:1008300018BB144CE36C43F00103E364E36C03F076
:1008400001030093009B4FF4C06317931223189386
:100850000023199303231A9304231B9317A94FF022
:10086000904001F0DFFBA36D43F40013A365A36D7B
:1008700003F400130193019BD3E7FFF793FED8E73E
:10088000005400400010024010B59CB00446002106
:100890001791189119911A911B91542202A804F0F2
:1008A00079FE2268184B9A4201D01CB010BD022379
:1008B000029302A801F042FA10BB144B9A6D42F465
:1008C00000329A659A6D02F400320092009ADA6C56
:1008D00042F00102DA64DB6C03F001030193019B37
:1008E0000C231793022318930023199303231A93BD
:1008F00007231B9317A94FF0904001F093FBD4E717
:10090000FFF750FED9E700BF00440040001002404E
:1009100003689A6912F0020F01D000229A620368FC
:100920009A6912F0010F03D19A6942F001029A61AB
:10093000704710B4019CC1F3090141EA0241194317
:10094000214321F0004102685368640D04F480647F
:1009500044F07F7444F4583444F47F7444F0030446
:1009600023EA0404214351605DF8044B70472DE9EC
:10097000F041044603689E6916F010067CD00D46CF
:1009800090461022DA61002637462368986910F0F5
:10099000200F30D17FBBB5F1FF3FF6D000F038FC1F
:1009A000A0EB0800A84201D8002DEED121684B68C9
:1009B00003F4804394F84220D2B2886910F4004FC7
:1009C00002D00BB9202A0ED123689B6913F0200FA7
:1009D000DBD100F01DFCA0EB08001928F4D946F08B
:1009E00020060127D1E74B6843F480434B6000F0B9
:1009F0000FFC8046E8E70FB92022DA6146F00406D2
:100A000001252268936913F4807F05D046F0010622
:100A10004FF48071D161012513F4806F06D046F048
:100A2000080622684FF48061D161012513F4007F2C
:100A300024D046F0020623684FF40072DA610125E3
:100A40002046FFF765FF2268536823F0FF7323F405
:100A50008B3323F4FF7323F001035360636C1E4355
:100A60006664202384F84130002384F8423084F8FF
:100A700040302846BDE8F0810025C2E7002DF8D0BF
:100A8000DEE770B504460D46164623689B6913F0F1
:100A9000020F22D1324629462046FFF768FFF0B9FF
:100AA000B5F1FF3FF1D000F0B3FB801BA84201D8A5
:100AB000002DEAD123689B6913F0020FE5D1636C26
:100AC00043F020036364202384F84130002384F83A
:100AD000423084F84030012000E0002070BD012049
:100AE000FCE72DE9F04104460F4616461D46DDF8A9
:100AF000188023689B6937EA03030CBF0123002396
:100B0000B34227D1424629462046FFF730FF20BB9B
:100B1000B5F1FF3FEDD000F07BFBA0EB0800A84251
:100B200001D8002DE5D123689B6937EA03030CBF88
:100B300001230023B342DCD1636C43F020036364E0
:100B4000202384F84130002384F8423084F8403078
:100B5000012000E00020BDE8F0810120FBE700005B
:100B60002DE9F04182B0044690461D46089E099F3B
:100B7000194B00934FF08073EAB2FFF7DAFE3A4662
:100B800031462046FFF77DFFF8B9012D0ED12368CD
:100B90005FFA88F29A62009733460022802120464D
:100BA000FFF79FFFA8B902B0BDE8F08123684FEAC4
:100BB00018229A623A4631462046FFF762FF30B962
:100BC00023685FFA88F29A62E5E70120EBE70120EB
:100BD000E9E70120E7E700BF002000802DE9F041B0
:100BE00082B0044690461D46089E099F184B00930C
:100BF0000023EAB2FFF79DFE3A4631462046FFF752
:100C000040FFF8B9012D0ED123685FFA88F29A628D
:100C100000973346002240212046FFF762FFA8B923
:100C200002B0BDE8F08123684FEA18229A623A4682
:100C300031462046FFF725FF30B923685FFA88F276
:100C40009A62E5E70120EBE70120E9E70120E7E709
:100C50000020008070B504460D46164604E0236867
:100C60009B6913F0200F12D023689B6913F0200FAB
:100C70001BD1324629462046FFF779FEB8B900F06D
:100C8000C7FA801BA842EAD8002DEDD1E7E7636CD4
:100C900043F020036364202384F84130002384F868
:100CA000423084F84030012000E0002070BD012077
:100CB000FCE700285FD010B5044690F84130002BC7
:100CC00048D0242384F841302268136823F00103BC
:100CD00013606368226823F070631361226893686D
:100CE00023F400439360E368012B38D0A3682268A3
:100CF00043F404439360E368022B36D022685368C0
:100D000023F4006353602268536843F0007343F494
:100D1000004353602268D36823F40043D3602369FF
:100D200062691343A169226843EA0123D360E3693E
:100D3000216A22680B4313602268136843F00103A1
:100D4000136000206064202384F84130206384F81D
:100D5000420010BD80F84030FFF752FDB1E7A368B4
:100D6000226843F400439360C5E72268536843F464
:100D700000635360C7E7012070472DE9F04F83B04F
:100D80000E46BDF834A00E9D90F84110C9B220293E
:100D900040F0BB800446904699460C9BCBB1BAF11B
:100DA000000F16D090F84030012B00F0B2804FF0C9
:100DB000010B80F840B000F02BFA07460090192391
:100DC0005A464FF400412046FFF78BFE30B1012018
:100DD0009CE04FF400736364012097E0212384F8C2
:100DE0004130402384F84230002363640C9A6262ED
:100DF000A4F82AA06363019700954B46424631460A
:100E00002046FFF7ADFE70B9638D9BB2FF2B0FD963
:100E1000FF222285002300934FF080733146204645
:100E2000FFF787FD21E0002384F8403058466DE04D
:100E3000628D92B22285002300934FF00073D2B2EC
:100E400031462046FFF775FD0FE0628D92B2228594
:100E5000002300934FF00073D2B231462046FFF7D3
:100E600068FD638D9BB2002B33D03A46294620465D
:100E7000FFF707FE00284ED1626A236812789A6253
:100E8000636A01336362638D9BB2013B9BB26385EE
:100E9000238D013B9BB22385628D92B2002AE0D064
:100EA000002BDED100972B46002280212046FFF741
:100EB00018FE90BB638D9BB2FF2BC6D9FF22228503
:100EC000002300934FF0807331462046FFF731FD39
:100ED000C7E73A4629462046FFF7BCFEF8B9236823
:100EE0002022DA6121684B6823F0FF7323F48B33EF
:100EF00023F4FF7323F001034B6084F841200023A7
:100F000084F8423084F8403000E0022003B0BDE8AD
:100F1000F08F0220FAE70120F8E70120F6E7012030
:100F2000F4E700002DE9F04F83B00E46BDF834A081
:100F30000E9D90F84110C9B2202940F0BC800446B3
:100F4000904699460C9BCBB1BAF1000F16D090F8A1
:100F50004030012B00F0B3804FF0010B80F840B01F
:100F600000F056F90746009019235A464FF4004105
:100F70002046FFF7B6FD30B101209DE04FF400732D
:100F80006364012098E0222384F84130402384F8F0
:100F90004230002363640C9A6262A4F82AA063635F
:100FA000019700954B46424631462046FFF716FE14
:100FB00070B9638D9BB2FF2B0FD901222285444B60
:100FC00000934FF0807331462046FFF7B2FC21E0DA
:100FD000002384F8403058466EE0628D92B222853C
:100FE0003B4B00934FF00073D2B231462046FFF7DF
:100FF000A0FC0FE0628D92B22285002300934FF097
:101000000073D2B231462046FFF793FC638D9BB24A
:10101000002B34D000972B46002204212046FFF7F6
:1010200060FD00284DD123685A6A636A1A70636AAA
:1010300001336362228D013A92B22285638D9BB2A5
:10104000013B9BB26385638D9BB2002BDED0002AEF
:10105000DCD100972B4680212046FFF742FD90BB54
:10106000638D9BB2FF2BC5D90122228500230093FB
:101070004FF0807331462046FFF75BFCC6E73A46E7
:1010800029462046FFF7E6FDF8B923682022DA61F9
:1010900021684B6823F0FF7323F48B3323F4FF7331
:1010A00023F001034B6084F84120002384F8423090
:1010B00084F8403000E0022003B0BDE8F08F022049
:1010C000FAE70120F8E70120F6E70120F4E700BF86
:1010D0000024008090F84130DBB2202B24D190F81E
:1010E0004030012B22D0012380F84030242380F8A7
:1010F00041300268136823F001031360026813682B
:1011000023F4805313600268136819431160026866
:10111000136843F001031360202380F8413000235B
:1011200080F8403018467047022070470220704710
:1011300090F84130DBB2202B22D190F84030012BC7
:1011400020D0012380F84030242380F84130026809
:10115000136823F0010313600268136823F47063BB
:1011600043EA012111600268136843F00103136030
:10117000202380F84130002380F840301846704723
:101180000220704702207047104B1B780BB90120DA
:10119000704710B504464FF47A70B0FBF3F30C4A75
:1011A0001068B0FBF3F001F0AFF868B90F2C01D96B
:1011B00001200AE0002221464FF0FF3001F06CF8D8
:1011C000044B1C60002000E0012010BD0000002046
:1011D000080000200400002010B5032001F04AF8A8
:1011E0000F20FFF7D1FF10B10124204610BD0446A7
:1011F000FFF7EEFAF9E70000034B1B78034A11688A
:101200000B441360704700BF0000002098010020CD
:10121000014B1868704700BF9801002038B504469C
:10122000FFF7F6FF0546B4F1FF3F02D0044B1B78F1
:101230001C44FFF7EDFF401BA042FAD338BD00BFAE
:101240000000002030B583B00446204B9B6D13F0A6
:10125000805F0BD000F0BEFFB0F5007F17D0802C70
:101260001FD82DD0702C2DD000211BE0174DAB6D59
:1012700043F08053AB65AB6D03F080530193019B4A
:1012800000F0A8FFAB6D23F08053AB65E4E7802C42
:1012900003D9A02C03D9022104E0002102E001219E
:1012A00000E003210A4A136823F007030B4313608D
:1012B000136803F007038B4206D1002003B030BD52
:1012C0000221EFE70121EDE70120F7E700100240DE
:1012D00000200240284A9368D26802F0030213F00B
:1012E0000C030AD00C2B06D0042B1FD0082B20D0C7
:1012F0000020024610E0012AF6D11F4A126812F0BF
:10130000080F0CD11C4AD2F89420C2F303221B49C7
:1013100051F8222043B100200C2B0DD07047164A03
:101320001268C2F30312F2E71046F5E714480022F0
:10133000F2E714480022EFE70F4BDB6803F00303EA
:10134000022B16D0032B00D10E4A0B49C868C0F3FC
:101350000210431CC868C0F3062002FB00F0B0FB7B
:10136000F3F0CB68C3F3416301335B00B0FBF3F0F0
:10137000D4E7034AE9E700BF00100240D05E00084E
:101380000024F40000127A00002800F01C83F0B55D
:1013900083B00446964B9D6805F00C05DE6806F0A8
:1013A0000306036813F0100F5AD0E5B10C2D18D0C6
:1013B000A369002B00F0BB808D4A136843F0010342
:1013C0001360FFF725FF0746894B1B6813F0020FD8
:1013D00040F09A80FFF71CFFC01B0228F4D90320BD
:1013E000FCE2012EE4D1824B1B6813F0020F03D004
:1013F000A369002B00F0E982206A7D4B1B6813F083
:10140000080F5BD07A4B1B6803F0F00398425CD85E
:10141000774B1A6842F008021A601A6822F0F0024C
:10142000216A0A431A605A6822F47F42E16942EA5B
:1014300001225A60002D60D0FFF74CFF6C4B9B6877
:10144000C3F303136B4AD35C03F01F03D8406A4B0A
:1014500018606A4B1868FFF797FE002840F0BE82BC
:10146000236813F0010F00F08180082D75D00C2D3A
:1014700071D06368B3F5803F00F09780B3F5A02F7B
:1014800000F099805A4B1A6822F480321A601A6868
:1014900022F480221A606368002B00F09980FFF725
:1014A000B7FE0746524B1B6813F4003F5ED1FFF7AF
:1014B000AFFEC01B6428F5D903208FE24C4BD3F854
:1014C00094301B0903F0F003A0E7FFF7BBFE0028F0
:1014D00040F07D82464B1A6842F008021A601A6892
:1014E00022F0F002216A0A431A605A6822F47F420D
:1014F000E16942EA01225A609EE7206AFFF7A2FEF4
:10150000002899D0012069E2394B1A6842F008029C
:101510001A601A6822F0F002216A0A431A605A68B7
:1015200022F47F42E16942EA01225A6098E7304A98
:10153000136823F001031360FFF76AFE07462C4B84
:101540001B6813F0020F8BD0FFF762FEC01B02284E
:10155000F5D9032042E2032E8BD1254B1B6813F4EF
:10156000003F03D06368002B00F03382236813F040
:10157000020F58D0042D45D00C2D41D0E368002B2C
:1015800077D01B4A136843F480731360FFF740FE63
:101590000646174B1B6813F4806F61D1FFF738FEC6
:1015A000801B0228F5D9032018E2114A136843F47E
:1015B000803313606FE703F18043A3F53C331A686F
:1015C00042F480221A601A6842F480321A6062E79C
:1015D000FFF71EFE0746064B1B6813F4003FC5D0FD
:1015E000FFF716FEC01B6428F5D90320F6E100BF03
:1015F00000100240B85E000808000020040000202F
:10160000022EBBD1A44B1B6813F4806F03D0E36898
:10161000002B00F0E081A04A536823F0F8532169C1
:1016200043EA01635360236813F0080F4CD06369E9
:101630009BB3994AD2F8943043F00103C2F8943036
:10164000FFF7E6FD0646944BD3F8943013F0020FF3
:101650003AD1FFF7DDFD801B0228F4D90320BDE15C
:101660008D4A536823F0F853216943EA01635360BC
:10167000D9E7894A136823F480731360FFF7C8FD24
:101680000646854B1B6813F4806FCCD0FFF7C0FD76
:10169000801B0228F5D90320A0E17F4AD2F89430BC
:1016A00023F00103C2F89430FFF7B2FD06467A4BEF
:1016B000D3F8943013F0020F06D0FFF7A9FD801B7A
:1016C0000228F4D9032089E1236813F0040F7AD0AB
:1016D000714B9B6D13F0805F36D16F4B9A6D42F06A
:1016E00080529A659B6D03F080530193019B012604
:1016F0006A4B1B6813F4807F28D0A368012B39D074
:10170000052B3FD0644BD3F8902022F00102C3F8A0
:101710009020D3F8902022F00402C3F89020A36810
:10172000002B3DD0FFF774FD07465B4BD3F890309C
:1017300013F0020F46D1FFF76BFDC01B41F2883357
:101740009842F2D9032049E10026D1E7534A1368B1
:1017500043F480731360FFF75BFD07464F4B1B6834
:1017600013F4807FC9D1FFF753FDC01B0228F5D9C0
:10177000032033E1484AD2F8903043F00103C2F825
:101780009030CCE7444BD3F8902042F00402C3F8E9
:101790009020D3F8902042F00102C3F89020BEE7D9
:1017A000FFF736FD07463C4BD3F8903013F0020F9D
:1017B00008D0FFF72DFDC01B41F288339842F2D9C3
:1017C00003200BE1E6B9236813F0200F35D0636ADC
:1017D000E3B1314AD2F8983043F00103C2F89830AF
:1017E000FFF716FD06462C4BD3F8983013F0020F86
:1017F00023D1FFF70DFD801B0228F4D90320EDE073
:10180000254A936D23F080539365DCE7224AD2F892
:10181000983023F00103C2F89830FFF7F9FC064630
:101820001D4BD3F8983013F0020F06D0FFF7F0FCF1
:10183000801B0228F4D90320D0E0A36A002B00F01B
:10184000CC80022B17D00C2D00F0CC80124A1368EC
:1018500023F080731360FFF7DBFC04460E4B1B681C
:1018600013F0007F00F0A880FFF7D2FC001B0228D5
:10187000F4D90320B2E0084BDB6803F00301E26A0D
:1018800091420DD00C2D00F0AB80034B1B6813F080
:10189000806F2FD00120A1E00010024000700040B6
:1018A00003F07002216B0139B2EB011FEAD103F49E
:1018B000FE42616BB2EB012FE4D103F07842A16BE1
:1018C000B2EBC16FDED103F4C001E26B5208013A02
:1018D000B1EB425FD6D103F0C063226C5208013AEB
:1018E000B3EB426FCED1404B1B6813F0007F49D061
:1018F000002073E03C4A136823F080731360FFF705
:1019000087FC0546384B1B6813F0007F06D0FFF7B5
:101910007FFC401B0228F5D903205FE0324AD368E0
:1019200032491940E36A206B013843EA0013606BC7
:1019300043EA0023E06B4008013843EA4053206C3F
:101940004008013843EA4063A06B43EAC0630B439D
:10195000D360136843F080731360D36843F08073DF
:10196000D360FFF755FC04461F4B1B6813F0007F44
:1019700006D1FFF74DFC001B0228F5D903202DE00E
:1019800000202BE0184B1A6842F080721A60DA6867
:1019900042F08072DA60FFF73BFC0446124B1B6892
:1019A00013F0007F06D1FFF733FC031B022BF5D9A0
:1019B000032013E0002011E00B4AD1680C4B0B40D0
:1019C000D36000200AE001207047012006E00120DA
:1019D00004E0012002E0012000E0002003B0F0BD9F
:1019E0000120FBE70120F9E7001002408C809D01F7
:1019F000FCFFEEFE002800F0AF8070B50D460446F7
:101A0000594B1B6803F007038B420BD2564A1368ED
:101A100023F007030B431360136803F007038B42A3
:101A200040F09C80236813F0020F0CD0A2684F4B4B
:101A30009B6803F0F0039A4205D94C498B6823F068
:101A4000F0031A438A60236813F0010F39D06368EA
:101A5000032B09D0022B26D063BB444A126812F034
:101A6000020F06D1012076E0404A126812F0007F92
:101A700076D03E498A6822F0030213438B60FFF759
:101A8000C7FB0646394B9B6803F00C036268B3EB57
:101A9000820F16D0FFF7BCFB801B41F288339842BF
:101AA000F0D9032057E0314A126812F4003FE0D128
:101AB000012050E02D4A126812F4806FD9D1012024
:101AC00049E0236813F0020F0CD0A268274B9B68F3
:101AD00003F0F0039A4205D224498B6823F0F00307
:101AE0001A438A60204B1B6803F00703AB420AD9F4
:101AF0001D4A136823F007032B431360136803F098
:101B00000703AB422ED1236813F0040F06D0174A07
:101B1000936823F4E063E1680B439360236813F058
:101B2000080F07D0114A936823F46053216943EAF0
:101B3000C1039360FFF7CEFB0C4B9B68C3F3031309
:101B40000B4AD35C03F01F03D8400A4B18600A4BC2
:101B50001868FFF719FB70BD012070470120FAE7F4
:101B60000120F8E70120F6E70020024000100240C3
:101B7000B85E00080800002004000020014B18682F
:101B8000704700BF0800002008B5FFF7F7FF054BBE
:101B90009B68C3F30223044AD35C03F01F03D840BD
:101BA00008BD00BF00100240C85E000808B5FFF77E
:101BB000E5FF054B9B68C3F3C223044AD35C03F0E3
:101BC0001F03D84008BD00BF00100240C85E0008D7
:101BD000F8B504460F46584BDB6813F0030F18D0D6
:101BE000554BDB6803F003030268934202D00125E2
:101BF0002846F8BD002A00F09D804F4BDB68C3F3F8
:101C0000021301334268934201D00125F0E7002519
:101C100009E00368022B56D0032B5BD0012B41D087
:101C20000125002DE4D1444A136823F0806313603A
:101C3000FFF7EEFA0646404B1B6813F0006F05D025
:101C4000FFF7E6FA831B022BF5D90325002DCFD130
:101C5000002F4DD138490B6923F0784323F4FE431C
:101C6000A068E268D20642EA002213430B61324ABE
:101C7000136843F080631360FFF7CAFA06462E4BE1
:101C80001B6813F0006F05D1FFF7C2FA831B022B0C
:101C9000F5D90325002DABD1274A1369A1690B4360
:101CA0001361A5E7244A126812F0020F1ED02248E1
:101CB000C26822F073026168013943EA01131343D9
:101CC000C3600025ADE71C4A126812F4806FEED1A4
:101CD0000125A6E7184A126812F4003FE7D1164A18
:101CE000126812F4802FE2D101259AE7012598E7C6
:101CF000012F0FD01048026922F0C06222F4FE4288
:101D0000A16863695B08013B5B0643EA0123134357
:101D10000361ACE70848026922F4C00222F4FE42E3
:101D2000A16823695B08013B5B0543EA0123134378
:101D300003619CE701255BE7001002402DE9F041BB
:101D400082B00446036813F4006F25D0C36BB3F56B
:101D5000000F06D0B3F5400F12D04BB10126374625
:101D60001CE0AE4AD36843F48033D360002708E018
:101D700000210430FFF72CFF074610B106460DE0A6
:101D80000027A64AD2F8883023F44003E16B0B43C6
:101D9000C2F88830002601E000263746236813F495
:101DA000003F6BD09D4B9B6D13F0805F4CD19B4BE4
:101DB0009A6D42F080529A659B6D03F080530193B7
:101DC000019B4FF00108964A136843F48073136037
:101DD000FFF71EFA0546924B1B6813F4807F05D16E
:101DE000FFF716FA401B0228F5D90327002F40D130
:101DF0008A4BD3F8903013F4407315D0226D9A4279
:101E000012D0864AD2F8903023F44073D2F8901062
:101E100041F48031C2F89010D2F8901021F4803152
:101E2000C2F89010C2F8903013F0010F0FD1002FBC
:101E300040F0C980794AD2F8903023F44073216D84
:101E40000B43C2F8903015E04FF00008BBE7FFF7F6
:101E5000DFF90546714BD3F8903013F0020FE6D14D
:101E6000FFF7D6F9401B41F288339842F2D9032795
:101E7000DDE73E46B8F1000F40F0A780236813F07D
:101E8000010F08D0654AD2F8883023F00303216A95
:101E90000B43C2F88830236813F0020F08D05F4A62
:101EA000D2F8883023F00C03616A0B43C2F8883003
:101EB000236813F0200F08D0584AD2F8883023F452
:101EC0004063A16A0B43C2F88830236813F4007F93
:101ED00008D0524AD2F8883023F44023616B0B4378
:101EE000C2F88830236813F4806F08D04B4AD2F8C8
:101EF000883023F44013A16B0B43C2F88830236869
:101F000013F0400F08D0454AD2F8883023F44053EC
:101F1000E16A0B43C2F88830236813F4807F08D04D
:101F20003E4AD2F8883023F44033216B0B43C2F889
:101F30008830236813F4005F0FD0384AD2F8883015
:101F400023F04063216C0B43C2F88830236CB3F15B
:101F5000006F40D0B3F1806F42D0236813F4802F1C
:101F60000FD02E4AD2F8883023F04063616C0B43C7
:101F7000C2F88830636CB3F1006F39D0B3F1806F71
:101F80003BD0236813F4804F0CD0244AD2F8883019
:101F900023F04053A16C0B43C2F88830A36CB3F11B
:101FA000805F32D0236813F4004F08D01B4AD2F868
:101FB000883023F08043E16C0B43C2F88830304610
:101FC00002B0BDE8F0813E4654E7144A936D23F019
:101FD0008053936552E7D36843F48013D360BCE722
:101FE0000121201DFFF7F4FD0028B6D00646B4E716
:101FF000D36843F48013D360C3E70121201DFFF7AA
:10200000E7FD0028BDD00646BBE70221201DFFF7F3
:10201000DFFD0028C6D00646C4E700BF001002401E
:1020200000700040F0B583B0002362E085685E0078
:102030000324B44025EA0405CC68B4402C438460F2
:10204000446824EA0C0C4C68C4F300149C4044EA35
:102050000C0444605EE0DD08083550F8256003F0AC
:1020600007044FEA840C0F2404FA0CF426EA040E49
:102070000C6904FA0CF444EA0E0440F8254060E0D0
:10208000022400E0002404FA0EF42C430CF1020CAC
:102090004C4D45F82C404C4CA568D44325EA02062B
:1020A0004F6817F4801F01D042EA0506464DAE6026
:1020B000ED6804EA05064F6817F4001F01D042EAF4
:1020C0000506414DEE606D6804EA05064F6817F499
:1020D000003F01D042EA05063B4D6E602D682C4062
:1020E0004E6816F4803F01D042EA0504364A146077
:1020F00001330A6832FA03F462D04FF0010C0CFA93
:1021000003FC1CEA0202F3D04C6804F00304013C17
:10211000012C8BD94C6804F00304032C0CD0C46848
:102120005D004FF0030C0CFA05FC24EA0C0C8C68E3
:10213000AC4044EA0C04C4604C6804F00304022C74
:1021400089D004684FEA430E4FF0030C0CFA0EFCE2
:1021500024EA0C0C4C6804F0030404FA0EF444EA7C
:102160000C0404604C6814F4403FC1D0174C256E39
:1021700045F001052566246E04F001040194019CDC
:102180004FEA930C0CF102050E4C54F8255003F065
:1021900003044FEA840E0F2404FA0EF425EA040522
:1021A000B0F1904F3FF46EAF094CA04206D004F559
:1021B0008064A0423FF464AF072464E7012462E72F
:1021C00003B0F0BD000001400004014000100240D7
:1021D00000040048024B186800F4C060704700BF5C
:1021E00000700040B0F5007F0FD01F4B1B6803F458
:1021F000C063B3F5806F34D01B4A136823F4C06307
:1022000043F48063136000207047174B1B6803F48E
:10221000C063B3F5007F20D0134A136823F4C06372
:1022200043F400731360114B1B68322202FB03F36B
:102230000F4AA2FB03239B0C013300E0013B0A4A37
:10224000526912F4806F01D0002BF7D1064B5B6905
:1022500013F4806F03D100207047002070470320E3
:1022600070470020704700BF007000400800002049
:1022700083DE1B43074AD36823F4E0631B041B0C73
:10228000000200F4E060034343F0BF6343F4003313
:10229000D360704700ED00E000B5194BDB68C3F375
:1022A0000223C3F1070CBCF1040F28BF4FF0040C4C
:1022B00003F1040EBEF1060F18D9033B4FF0FF3EA9
:1022C0000EFA0CFC21EA0C0199400EFA03F322EA03
:1022D0000303194300280BDB0901C9B200F1604078
:1022E00000F5614080F800135DF804FB0023E5E78A
:1022F00000F00F000901C9B2024B1954F4E700BF06
:1023000000ED00E014ED00E00138B0F1807F0BD269
:102310004FF0E0235861054AF02182F82310002095
:10232000986107221A6170470120704700ED00E0B4
:10233000026852E8003F23F4907342E8003100291C
:10234000F6D1026802F1080353E8003F23F00103CD
:10235000083242E800310029F3D1036E012B06D088
:102360002023C0F88030002303668366704702682C
:1023700052E8003F23F0100342E800310029F6D173
:10238000EEE7000010B50446016883680269134354
:1023900042691343C269134308688C4A02401343DD
:1023A0000B602268536823F44053E1680B43536089
:1023B000A1692268864B9A4201D0236A1943936827
:1023C00023F430630B4393602368824A93421CD00A
:1023D000814A93422DD07E4A934243D010227C49B9
:1023E0008B4260D0E069B0F5004F00F08C80082A85
:1023F00000F2E580DFE812F0B400CA00B200E300AA
:10240000CD00E300E300E300D00002F55842D2F82B
:10241000882002F00302032A09D8DFE802F0020450
:1024200038060122DBE70422D9E70822D7E7102289
:10243000D5E702F5E632D2F8882002F00C020C2A29
:102440000ED8DFE802F0070D0D0D090D0D0D260D5C
:102450000D0D0B000022C2E70422C0E70822BEE7F0
:102460001022BCE702F5C832D2F8882002F440629C
:10247000B2F5006F0FD005D87AB1B2F5806F0ED1EA
:102480000422ACE7B2F5406F0BD10822A7E7022285
:10249000A5E70222A3E70222A1E700229FE710227C
:1024A0009DE710229BE7082A79D8DFE802F0087838
:1024B0002A782778787805004FF4004003E0FFF78A
:1024C00063FB00286DD0626802EB420383426AD846
:1024D000B0EB023F69D8010E00025308C0184FF05C
:1024E000000341F10001FDF7CBFEA0F540723B4B2C
:1024F0009A425CD82368D860002043E0FEF7EAFEE9
:10250000DFE73748DFE7082A53D8DFE802F0072182
:102510000552245252520B00314803E0FFF734FBBE
:10252000002848D06268530803EB4000B0FBF2F08B
:10253000A0F110024FF6EF739A423ED883B223F017
:102540000F03C0F3420018432368D860002019E04D
:10255000FFF72CFBE4E7FEF7BDFEE1E7204802E0D1
:10256000FFF712FB68B3636800EB5300B0FBF3F0B6
:10257000A0F110024FF6EF739A4224D8236880B27C
:10258000D86000200023A366E36610BDFFF70EFBB2
:10259000E8E7FEF79FFEE5E74FF40040E3E70120A0
:1025A000F0E70020EEE70120ECE70120EAE7012058
:1025B000E8E70120E6E70020E4E70120E2E7012068
:1025C000E0E70020DEE70120DCE700BFF369FFEF72
:1025D000008000400038014000440040FFFC0F0034
:1025E0000024F400436A13F0080F06D00268536811
:1025F00023F40043416B0B435360436A13F0010F14
:1026000006D00268536823F40033816A0B43536099
:10261000436A13F0020F06D00268536823F4803334
:10262000C16A0B435360436A13F0040F06D002687B
:10263000536823F48023016B0B435360436A13F008
:10264000100F06D00268936823F48053816B0B430C
:102650009360436A13F0200F06D00268936823F456
:102660000053C16B0B439360436A13F0400F0AD0D1
:102670000268536823F48013016C0B435360036CAE
:10268000B3F5801F0BD0436A13F0800F06D00268A9
:10269000536823F40023816C0B4353607047026836
:1026A000536823F4C003416C0B435360EBE72DE9FF
:1026B000F84305460E4617469946DDF820802C68FB
:1026C000E46936EA04030CBF4FF0010C4FF0000C34
:1026D000BC4536D1B8F1FF3FF1D0FEF799FDA0EB34
:1026E0000900404530D8B8F1000F2FD02B681A6888
:1026F00012F0040FE3D0802EE1D0402EDFD0DA6953
:1027000012F0080F11D1DA6912F4006FD7D04FF42C
:1027100000621A622846FFF70BFE2023C5F88430BA
:10272000002385F8783003200CE008241C6228463A
:10273000FFF7FEFDC5F88440002385F878300120BE
:1027400000E00020BDE8F8830320FBE70320F9E761
:102750002DE9F04182B01E46C36F202B56D10446AE
:102760000D469046002955D00AB901204FE00023BC
:10277000C0F884302123C367FEF74AFD0746A4F85A
:102780005080A4F85280A368B3F5805F02D04FF068
:10279000000818E0236913B14FF0000813E0A846C1
:1027A000002510E02023E367032030E038F8023BE7
:1027B0002268C3F308031385B4F8522092B2013A99
:1027C00092B2A4F85220B4F852309BB27BB100967A
:1027D0003B46002280212046FFF769FF0028E1D117
:1027E000002DE3D0236815F8012B1A85E4E7009645
:1027F0003B46002240212046FFF759FF10B9202315
:10280000E36704E02023E367032000E0022002B036
:10281000BDE8F0810120FAE730B583B0044600231B
:10282000C0F88430FEF7F4FC05462268126812F006
:10283000080F0FD123681B6813F0040F26D1202343
:10284000E367C4F8803000202066606684F8780072
:1028500003B030BD6FF07E430093034600224FF477
:1028600000112046FFF723FF0028E3D0226852E83A
:10287000003F23F0800342E800310029F6D12023F5
:10288000E367002384F878300320E1E76FF07E43AC
:1028900000932B4600224FF480012046FFF707FFEC
:1028A0000028CCD0226852E8003F23F4907342E81D
:1028B00000310029F6D1226802F1080353E8003FF5
:1028C00023F00103083242E800310029F3D120232C
:1028D000C4F88030002384F878300320B8E768B368
:1028E00010B50446C36F03B32423E367226813685B
:1028F00023F001031360636AE3B92046FFF742FD4A
:10290000012811D02268536823F490435360226851
:10291000936823F02A0393602268136843F001034D
:1029200013602046FFF778FF10BD80F87830FDF780
:10293000ABFFD9E72046FFF755FEDEE701207047E1
:10294000034AD2F8883043F47003C2F888307047E5
:1029500000ED00E0B0F8B43233B1416103FB01F1A6
:10296000C0F8AC11002070476FF00E007047B0F84F
:10297000B42232B1D0F8AC31B3FBF2F30B600020DB
:1029800070476FF00E0070478446084611461A469D
:10299000BCF85E318BB110B582B0CCF80800CCF831
:1029A0000C10CCF810200CF5CE7401940CF5C27408
:1029B000009401F097FF02B010BD6FF00E00704759
:1029C0002DE9F0410446B0F85E0170B38846174621
:1029D0001E4694F8A21101F00AFF0546014694F83C
:1029E0008B0101F04FFFC8F8000094F89C3194F877
:1029F0009D0100EB0320294680B201F06BFF386097
:102A000094F8A03194F8A10100EB0320294680B28C
:102A100001F060FF3060D8F80030A3603B68E360ED
:102A2000336823610020BDE8F0816FF00E00FAE703
:102A3000072912D821B101238B405FFA83FC01E002
:102A40004FF0010C90F8C53103EA0C03137039B153
:102A500043FA01F11170002070476FF003007047D6
:102A60000020704738B505460C4600F2C3120978BD
:102A7000607801F078FF05F5E272E178A07801F066
:102A800088FF002038BD38B505460C460A4601319E
:102A900090F8C30101F0D4FCE21CA11C95F8C4011C
:102AA00001F071FF002038BD70B582B005460C46BC
:102AB00000268DF807608DF806600DF107020DF114
:102AC000060190F82A0201F0BBFC9DF80730237044
:102AD0009DF80630637095F82B321A09E27003F006
:102AE0000F03A370304602B070BD70B5044600F508
:102AF000AC7102F03DF80546D0B105B375B3B4F83A
:102B00005E31B3F5805F03D24BF6CC43A4F85E315F
:102B100065B3B4F8A2304BB994F89E301B0184F829
:102B2000A23094F89F301B0184F8A330284670BD72
:102B300004F14201204602F0CBF80546DDE704F53A
:102B4000FD763146204602F06DFC05460028D5D1C1
:102B500004F1F001304601F07EFDCFE704F52D725F
:102B6000DE21204601F099FF0546C8E704F19E01E9
:102B70002046FFF799FF0546CBE70139252944D8C0
:102B8000DFE801F0131313131323232343434343B9
:102B90004343434313234343434343434343434355
:102BA00043434343434343333333B0F8CA101180A4
:102BB000D0F8D0201A60D0F8D830009A1360D0F83E
:102BC000E430019A136000207047B0F8CC101180F7
:102BD000D0F8D4201A60D0F8DC30009A1360D0F816
:102BE000E830019A136000207047B0F8CC101180D3
:102BF000D0F8D4201A60D0F8E030009A1360D0F8F2
:102C0000EC30019A1360002070476FF003007047AA
:102C10002DE9F04F89B004460D460592069300F564
:102C2000B27600F5C27700F5CE7800F5DA7900F5D6
:102C3000E47A00F1A40B00F5397307934170129BFD
:102C4000C360139B0361149B4361032101F019FCD2
:102C5000013D252D00F2B180DFE805F01325303B62
:102C600046515C67AFAFAFAFAFAFAFAF727DAFAF45
:102C7000AFAFAFAFAFAFAFAFAFAFAFAFAFAFAF888B
:102C800095A2CDF804B0CDF800A04B464246394697
:102C9000304600F054FD002840F09180059BA4F8D8
:102CA000643123838BE0CDF804B0CDF800A04B460F
:102CB00042463946304600F005FEECE7CDF804B058
:102CC000CDF800A04B4642463946304600F019FE8A
:102CD000E1E7CDF804B0CDF800A04B4642463946B6
:102CE000304600F02DFED6E7CDF804B0CDF800A0B8
:102CF0004B4642463946304600F033FECBE7CDF82E
:102D000004B0CDF800A04B4642463946304600F0AC
:102D100039FEC0E7CDF804B0CDF800A04B464246DE
:102D20003946304600F04AFEB5E7CDF804B0CDF89C
:102D300000A04B4642463946304600F05CFEAAE70A
:102D4000CDF804B0CDF800A04B4642463946304697
:102D500000F0BFFE9FE7CDF804B0CDF800A04B46D1
:102D600042463946304600F09BFE94E7079B0293AB
:102D7000CDF804B0CDF800A04B4642463946304667
:102D800000F068FE87E7079B0293CDF804B0CDF80A
:102D900000A04B4642463946304600F048FE7AE7EE
:102DA000079B0293CDF804B0CDF800A04B464246F5
:102DB0003946304600F061FE6DE76FF0030018B150
:102DC00048B109B0BDE8F08F139B129A06992046CE
:102DD000FFF7DAFDF4E714992046FFF7BBFDF0E7B3
:102DE000B0F8A6310B8000207047A0F8A611002093
:102DF0007047B0F8A8310B8000207047A0F8A811E8
:102E00000020704790F8603103F0030303EB810367
:102E100080F860310020704730B585B004460D461B
:102E2000622101F02EFB0023237001226270A37047
:102E3000E27022714FF47A72A2604FF4FA62E2609B
:102E400043F2C8222261642262614FF4206222832D
:102E500084F8213040F2DB73A4F89C30204601F066
:102E600003FB0DBB04F5887000F0BFFB04F5907008
:102E700000F0CDFB04F5967104F1420000F0D6FBA2
:102E800004F5A27000F0FCFB04F1A40000F00AFCC1
:102E900020212046FFF7B6FF054648B1204601F045
:102EA0007DFD284605B030BD2046FFF71EFED9E760
:102EB0006369029323690193E3680093A368228BFB
:102EC00061782046FFF7A4FE0546E7E72DE9F04FBD
:102ED000C3B00446164600F5AC7004F1420B04F58D
:102EE000B273009304F5C273019304F5CE7A04F52E
:102EF000DA7904F5E478A17094F9CC3103F00F038A
:102F0000194384F8CC11B4F84231A4F87C3194F818
:102F1000E632FF2B19D0D4F8E43223F07F4323F0BC
:102F2000FF03B3F5807F14D0D4F8E43223F07F435D
:102F300023F0FF03654A934224D0731E052B37D834
:102F4000DFE803F03432302E382C002384F8E632E8
:102F5000E1E794F8863184F8E732202384F886315B
:102F600094F8C53113F0600F08D1B4F858309B00C5
:102F7000A4F85430042ED7D80526D5E70023A4F8AA
:102F80005430F7E794F8E73284F8863106260127B3
:102F9000C7F18805ADB2002202AB12E00127F7E7C6
:102FA0002427F5E74427F3E75A27F1E77127EFE7EE
:102FB0008327EDE70D27EBE7002103F8011B013222
:102FC00092B2AA42F8D3052E35D80020042E01D99A
:102FD000002839D0032E01D900283FD0022E01D974
:102FE000002845D0012E01D900284BD0C6B1B8B970
:102FF000C7F1710292B294F8CC3113F0200F09D0CE
:1030000094F82E3043F0010184F8B41184F8C01113
:1030100084F8C63102AB1A441221484601F05FFF22
:10302000002839D0002841D0002846D0002848D0B8
:1030300043B0BDE8F08FC7F1010202AB13FA82F290
:103040000B2101F03BFDC1E7C7F10D0202AB13FA02
:1030500082F21721584601F09CFDBBE7C7F124021C
:1030600002AB13FA82F22021009801F042FEB5E78C
:10307000C7F1440202AB13FA82F21621019801F063
:10308000A6FEAFE7C7F15A0202AB13FA82F217218C
:10309000504601F0E1FEA9E7C7F1830202AB13FA43
:1030A00082F20521404601F05CFFBBE72B4602AAF5
:1030B0003946204601F0B0FCB6E7204601F0F4F9AD
:1030C000B4E7204601F07EFAB2E700BF000101003C
:1030D000F0B5C1B00C4600F5E77500F5227600F5B5
:1030E0002B7701290ED002290ED186236A4688212A
:1030F00001F0AAFC012C00D940B104B168B190B133
:1031000041B0F0BD4D23F1E72C23EFE73A460DF136
:103110004E01382002F008F8EFE732460BA92120D3
:1031200001F0C7FFEBE72A4669462C2001F032FF89
:10313000E6E708B50322FFF7C9FE08BD30B5CC7835
:103140009C7003F1040C00240CE091F801E00EF0F7
:103150001F0E8CF83EE0DCB1012C59D00CF1400C74
:103160000134E4B2012C00F287808CF80040002585
:10317000CCF80450CD78002DE7D191F801E00EF0A5
:103180001F0EBEF1090FE0D113258CF83E50E2E787
:103190008D78072D31D0082D33D08D88ACF81050A4
:1031A0000D8AACF82C50CD8AACF82E500D89ACF8B5
:1031B00030504D896D01B5F5803F01D34FF6FF7555
:1031C000ACF838508D89ACF83A50B1F80EE00EFBEF
:1031D00000FE1EF5806E18D44EF3CF2EACF83CE006
:1031E0005568CCF824509568CCF82850D568CCF8B0
:1031F00014501568CCF82050B0E74D8AACF8105048
:10320000CEE78D8AACF81050CAE70EF2FF7EE3E7F6
:103210000D8BACF810504D8BACF82C504FF6FF7561
:10322000ACF82E508D8BACF83050CD8B6D01B5F5D0
:10323000803F01D34FF6FF75ACF838500D8CACF8D9
:103240003A50B1F822E000FB0EFE1EF5806E10D45D
:103250004EF3CF2EACF83CE05569CCF8245095697C
:10326000CCF82850D569CCF814501569CCF820500A
:1032700074E70EF2FF7EEBE70022DA704A7802F084
:103280001F02112A04D8012191400448014200D1B3
:1032900030BDDA70002283F84220F9E70E200200E8
:1032A000F8B50446164600F53D77FFF711FF0546D1
:1032B00098B194F8E532012B19D094F82C3084F8A9
:1032C000F43294F8303084F8F532842239463046AE
:1032D00002F052F90DB32846F8BD3B4604F52272C0
:1032E00004F5E771B4F89C00FFF728FFE1E715B992
:1032F00094F8E6324BB1002DDFD194F8E632012B81
:10330000DBD1022384F8E632D7E7204601F063FBE5
:103310000546012384F8E632CFE7204601F024F980
:103320000546D8E7A1F50041382900F25881DFE8C9
:1033300011F039003E00430048004D005200570094
:103340005C00610066006B00700075007A007F0011
:10335000840089008E00930098009D00A200A700C1
:10336000AC00B100B600BB00C000C500CA00CF0071
:10337000D400D900DE00E300E800ED00F200F70021
:10338000FC00010106010B01100115011A011F01CA
:10339000240129012E01330138013D014201470179
:1033A0004C015101B0F8A430136000207047B0F810
:1033B000A630136000207047B0F8A83013600020DA
:1033C000704790F8B03013600020704790F8B1302B
:1033D000136000207047B0F8B230136000207047CF
:1033E000B0F89C3013600020704790F8B430136040
:1033F00000207047B0F8B630136000207047B0F876
:10340000B830136000207047B0F8BA301360002065
:103410007047B0F8BC30136000207047B0F8BE3081
:10342000136000207047B0F8C03013600020704770
:1034300090F8C23013600020704790F8C3301360DA
:103440000020704790F8C43013600020704790F857
:10345000403113600020704790F8C53013600020A1
:10346000704790F8C73013600020704790F8C8305C
:10347000136000207047B0F93E31136000207047A0
:1034800090F8AA3013600020704790F8AB301360BA
:103490000020704790F8AC3013600020704790F81F
:1034A000AD3013600020704790F8AE3013600020FC
:1034B000704790F8AF3013600020704790F8C63026
:1034C00013600020704790F860311360002070474F
:1034D00090F8103113600020704790F8113113609C
:1034E00000207047D0F81431136000207047B0F806
:1034F0001831136000207047B0F81A3113600020B3
:103500007047B0F81C31136000207047B0F84431A8
:10351000136000207047D0F84831136000207047D6
:10352000D0F85031136000207047D0F84C31136050
:103530000020704790F8543113600020704790F8D5
:10354000553113600020704790F856311360002009
:10355000704790F8213113600020704790F82231B5
:10356000136000207047B0F82831136000207047C6
:10357000B0F8CA30136000207047B0F8CC30136048
:1035800000207047D0F8D030136000207047D0F88A
:10359000D430136000207047D0F8D830136000207A
:1035A0007047D0F8DC30136000207047D0F8E4306A
:1035B000136000207047D0F8E83013600020704797
:1035C00090F8E432136000207047D0F8E0301360C8
:1035D00000207047D0F8EC301360002070476FF087
:1035E000004313606FF003007047082303700B2340
:1035F00043704FF47A7343604FF4206303814FF4B8
:10360000A06343814FF4A053838100207047034699
:103610000020187012225A700F229A700222DA705B
:1036200048F6A0425A600C221A81704738B50C4601
:1036300045890D60B0F90C10A180B0F90E20E28030
:103640004389A360B0F90C30A381B0F90E30E38157
:1036500000236382402323751DB963680BB923746B
:1036600001E001232374237C012B03D00023E38298
:10367000002038BD4023284601F0CAF8E082F7E771
:103680004FF4206303804FF47A73436043F2C823FE
:103690008360C3600823037428234374092383745D
:1036A00000207047034648F20302028048F20102FC
:1036B000428048F2410282800E2098710A21D9711D
:1036C00006221A7258729972DA7202221A73212132
:1036D00059730020D88118744FF4B47159829982BB
:1036E000D982C021198359839983082199771021A0
:1036F000D977012183F8201083F8212083F8221044
:1037000083F8232083F824004FF42062DA841A859A
:1037100048F23002DA624FF47A721A634FF4FA62B6
:103720005A639A634FF218621A6443F2C8225A64C9
:103730004FF42F72DA634FF4FA529A6470472DE90E
:10374000F0478446089D099C4FF42060ACF80000C7
:1037500000208CF802008CF803008CF804008CF830
:1037600005008CF806008CF807008CF808008CF82F
:1037700009008CF80A008CF80B0011268CF80C60FC
:1037800002268CF80D608CF80E008CF80F604FF05C
:1037900008088CF810808CF81100A77F8CF8127044
:1037A000E77F8CF8137094F820708CF814704FF049
:1037B000010E8CF815E08CF816008CF81700ACF8A8
:1037C0001800FF278CF81A7094F810908CF81B9052
:1037D00094F80C908CF81C908CF81D008CF81E004E
:1037E0008CF81F00087048704FF0200981F8029093
:1037F0004FF00B0C81F803C0B4F80EA0A1F804A0A0
:103800008E714FF00D0A81F807A094F80DA081F891
:1038100008A0487281F80AE08881C8814FF40C4AF8
:10382000A1F810A088744FF0380A81F813A00F7522
:1038300081F815E010701A215170907082F8039091
:1038400082F804E0CC21517182F806C082F807E0CA
:10385000F521117209215172B4F81490A2F80A905E
:10386000B4F81A90A2F80C9082F80E804FF0780805
:1038700082F80F801061107583F800E058809880FE
:10388000987194F82120DA7183F808C05972E279AE
:103890009A72A27ADA7283F80CE094F824205A73B0
:1038A00094F823209A73C722DA731F74DB225A74A8
:1038B0009E74687085F802E085F803E021232B717F
:1038C000BDE8F087F0B583B014461D46099E019609
:1038D000089F0097FFF733FF88B90722A2710523DD
:1038E0006372F18A6181B18BA1810821A1733821B2
:1038F000E1732A726B72337AAB72F37AEB7203B0B4
:10390000F0BDF0B583B014461D46099E0196089F90
:103910000097FFF714FF88B90F22A2710D2363727D
:10392000718A6181318BA1810821A173B821E17372
:103930002A726B72B379AB72737AEB7203B0F0BD1B
:1039400070B582B00D461C46079E0196069E0096F5
:10395000FFF7F5FE18B90223AB723B23637402B084
:1039600070BD70B582B00D461C46079E0196069E3E
:103970000096FFF7E4FE18B90223AB725B23637471
:1039800002B070BDF0B583B014461D46089F099E75
:1039900001960097FFF7D3FE70B9A8742071B12289
:1039A0006271E071D42323724FF4C063236196F8EF
:1039B0002230EB7140233B7103B0F0BDF0B583B012
:1039C00014461D46089F099E01960097FFF77AFF4F
:1039D00078B9A8740123237184226271E371B12341
:1039E00023724FF4C063236196F82230EB714023B9
:1039F0003B7103B0F0BDF0B583B014461D46089F7F
:103A0000099E01960097FFF77CFF70B9A87420719A
:103A100097226271E071B12323724FF4C063236176
:103A200096F82230EB7140233B7103B0F0BD70B5C6
:103A300082B00C461D46079E0196069E0096FFF733
:103A4000A1FF08B102B070BD089A2946204600F0D7
:103A5000BBFFF7E770B582B00C461D46079E019686
:103A6000069E0096FFF7AAFF08B102B070BD089A43
:103A70002946204600F0A8FFF7E770B582B00C4653
:103A80001D46079E0196069E0096FFF7B4FF08B1FB
:103A900002B070BD089A2946204600F095FFF7E76E
:103AA000F0B583B014461D46089F099E0196009705
:103AB000FFF745FE58B9A8742071B1226271E07118
:103AC000D423237296F82230EB7110233B7103B09C
:103AD000F0BD30B583B0069C079D01950094FFF7BB
:103AE0002EFE08B90123637003B030BD84B01F4BB4
:103AF0001B68ADF80C301B0C8DF80E301C4B1B688E
:103B0000ADF808301B0C8DF80A301A4B1B68ADF865
:103B100004301B0C8DF806300123137099420BD032
:103B200002290BD104280BD0082817D003280ED067
:103B30006FF0070004B070470023F3E70223F1E7BA
:103B400010336B4413F8043C13700020F2E7103379
:103B50006B4413F8083C13700020EBE710336B4400
:103B600013F80C3C13700020E4E700BF005F00086E
:103B7000045F0008085F0008034638B3072927D010
:103B8000B2F93C30B3F5967F07DB41F69A1101FBA1
:103B900003F323B94FF4C80311E04FF4F013118F6E
:103BA0005A080D4800FB0122B2FBF3F319040B4A3B
:103BB000B2EB034F01D3531A01E04FF44813C3F3A0
:103BC0000743322B06D9642B28BF6423184670475D
:103BD0003223FBE73223F9E7CDCC300033B3750055
:103BE000031F0F2B17D8DFE803F00C0A0E1912146D
:103BF000161610161616161608180A2070470420F6
:103C00007047022070470120704709207047032049
:103C1000704700207047FF20704706207047F0B5BE
:103C200089B006460C4611461F460025ADF81C50CB
:103C3000069505950495032C12D0082C0ED020254E
:103C40000DF11F022046FFF751FF58B1B0B100B986
:103C5000B57008B986F87C4309B0F0BD4025EFE7A0
:103C60004025EDE704AB019305AB009306AB07AA33
:103C70009DF81F103046FEF780FFE7E70297049B90
:103C80000193059B0093069BBDF81C209DF81F1017
:103C90003046FEF7BDFFDAE708B521B1012908D0AB
:103CA0006FF0030008BDC2F38F31FFF79EF80020CC
:103CB000F8E7C2F34F21FFF7A1F80020F2E7000078
:103CC00030B5C1B005460022852100F0D5FE04467E
:103CD000A8B1404BDB6A022B17D0032B17D0012B66
:103CE00011D00023ACB174B3002C46D0002C53D0BB
:103CF000002C60D0002C66D0204641B030BD284654
:103D000000F070FDE5E71023ECE72023EAE740230D
:103D1000E8E729228DF80020C9228DF801200E2223
:103D20008DF8022040228DF8032028228DF80420EF
:103D30008DF8053006236A4640F27641284600F0A9
:103D40006BFE0446CFE703238DF800306D228DF81B
:103D500001208DF802306F238DF8033007238DF892
:103D6000043029238DF8053006236A4640F2964137
:103D7000284600F051FE0446B6E700238DF80030D7
:103D800007238DF8013002236A4640F2724128462B
:103D900000F042FE0446A9E700238DF80030072317
:103DA0008DF8013002236A4640F27441284600F043
:103DB00033FE04469CE701224FF48E61284600F052
:103DC0005BFE044696E701228521284600F054FE5A
:103DD000044691E70C000020F0B585B00023039362
:103DE0000293019390F87C634B1EDBB2022B32D816
:103DF00004460D466946FEF746FE6769034640B134
:103E00007BB10BB984F87D539BB1F3B1184605B073
:103E1000F0BD03AB02AA01A92046FEF7D1FD03467F
:103E2000EEE73B462A4631462046FFF7F8FE0346BA
:103E3000E7E7039B029A01992046FEF7A5FD03469A
:103E40000028E2D1039A2261DFE769462046FEF7A7
:103E500009FE0346DAE76FF00303D7E708B58B01E5
:103E6000034AA2FB032301EB9311FEF773FD08BD88
:103E7000D34D621010B582B00C4601A9FEF777FD54
:103E8000019B9A010449A1FB0212A3EB9213019337
:103E9000236002B010BD00BFD34D6210012917D8B6
:103EA00070B506460C4615462AB101F1E00300EB59
:103EB00083039A6800E0002221463046FFF7ECFEBB
:103EC00028B9003D18BF0125344484F8845370BDDF
:103ED0006FF00300704770B506460121FEF79CFFA6
:103EE000054610B9012386F878330024012C0AD83E
:103EF0004DB9012221463046FFF7D0FF05436DB290
:103F00000134E4B2F2E7284670BD012905D808441F
:103F100090F88433137000207047002313706FF003
:103F20000300704770B582B0044616460D4629B1AD
:103F3000012917D06FF0030002B070BD01A9FEF790
:103F40004FFFBDF804309B030028F5D193B905F16C
:103F5000E00304EB83039B6833602C44002384F864
:103F60008433E9E70DF10601FEF743FFBDF80630A3
:103F70005B02E9E7336005F1E00204EB8202936043
:103F80002C44012384F88433D6E700002DE9F04166
:103F900082B00646084617461D46089C5B682360AB
:103FA00095F83E8008F01F082A464146FFF7E4FDD9
:103FB0006071AB8D5B02A3602B8E5B02E3602B8A8A
:103FC00023822B8F5B026361B5F93C30238300238E
:103FD000A3760D2F47D004D9112F06D00023E37606
:103FE00005E0013FFFB2022FF8D80523E376E37E18
:103FF0001BB94046FFF7F4FDE0762B8F5B02C6F855
:104000009033AB8D5B02C6F894336A46002130468C
:10401000FFF788FF0DF1070200213046FFF775FF1B
:104020009DF80730012B21D0002386F886336A469D
:1040300001213046FFF776FF0DF1070201213046DE
:10404000FFF763FF9DF80730012B16D0002386F899
:104050008733B4F91820E37E0BB9002A14DB002063
:1040600002B0BDE8F0810D23E376C0E7B8F1060F9A
:1040700001D00023D9E70123D7E7B8F1040F01D01D
:104080000023E4E70123E2E7044B5B689A4202DA8B
:104090000E23E376E3E700232383E0E70C00002010
:1040A00008B5FEF7C5FC08BD70B586B006460D46DE
:1040B00000238DF817308DF8163004930393029384
:1040C000454B99422AD96FF0030474B3ACB3FCB9E1
:1040D00096F87C33042B38D0082B59D0032B45D0CD
:1040E0003E49012300226FF00704AA426ED2AA1AA9
:1040F00004926CB98A426CD8B2FBF3F30493039A2E
:1041000002993046FEF740FC044608B9049B33612F
:104110000CB9C6F88053204606B070BD0DF11702E9
:104120000521FFF7BDFF0446CFE70DF1160206217A
:104130003046FFF7B5FF0446C8E704AB03AA02A95F
:104140003046FEF73DFC0446C1E79DF81730012BD1
:1041500032D09DF81630012B04D0204901234FF4B2
:104160007A72C2E71D4941F28832BEE79DF81730E6
:10417000012B26D09DF81630012B04D018490223BC
:1041800045F26042B1E71649022346F2E872ACE715
:1041900001AA48F236013046FFF7C4F8019A002A16
:1041A00008DDF52303FB02F21A4402F6DC520C4947
:1041B00002239AE7F522F8E70849012341F2883201
:1041C00093E70749022346F2E8728EE76FF0030493
:1041D0009EE76FF003049BE78096980070640800E8
:1041E000E0C8100038B505460C4600F0D7FB4FF488
:1041F0007A73032221462846FFF711FD50B9E31ECA
:10420000DBB2012B01D9082C06D14AF2280128463D
:10421000FFF74AFF30B138BD48F235212846FFF795
:1042200043FFF7E74FF47A712846FFF717FEF2E7EE
:1042300010B50446032380F87833202383700821C7
:10424000FFF7D0FF082384F87C3310BD70B586B02B
:1042500006460D4600238DF817308DF8163004936E
:10426000039302930B600DF117020521FFF718FF6E
:10427000044668B1A4B1002C54D196F87C33042BC9
:1042800016D0082B39D0032B23D06FF007044CE055
:104290000DF1160206213046FFF702FF0446E9E75A
:1042A00003AB04AA02A93046FEF78AFB0446E2E704
:1042B0009DF81730012B07D09DF81630012B03D045
:1042C000039B03F57A732EE0039B03F59C5308339D
:1042D00029E09DF81730012B09D09DF81630012BED
:1042E00005D0039B03F5285330335B001BE0039B91
:1042F00003F54F5334335B0015E001AA48F2360151
:104300003046FFF70FF8019B002B09DDF52202FB79
:1043100003F3134403F6DC53039A03EB420302E076
:10432000F523F7E7002304B92B60204606B070BDE3
:1043300030B583B004468578402D11D194F8783398
:10434000032B22D00FD9052B15D8042B10D26FF0D8
:104350000200B0B310B9042384F8783303B030BD41
:10436000FFF7AEFCEAE7022B28D96FF00200F0E776
:104370006FF00D00EDE7623BDBB2012B02D86FF06E
:104380000D00E6E76FF00200E3E7402D01D00020CA
:10439000DFE701A92046FFF759FF019B0D4AA2FB69
:1043A00003239B09019369462046FFF763FD019BA8
:1043B0000433009A93420AD80020CAE76FF00D0038
:1043C000C7E7062229462046FEF780FDC2E76FF0C8
:1043D0000300BFE7D34D621008B58178FEF7A9FE50
:1043E00008BD08B501F030F808BD30B5A5B00546E8
:1043F0000C464FF0FF330B604B608B60CB600B6162
:104400004B618B6103AA0221FEF74AFF08B125B078
:1044100030BD9DF80E302371009404AB9DF80F2041
:1044200001212846FFF7B2FDF1E74FF0804393FBEF
:10443000F0F070470130C0B2400000F0FE0070475D
:1044400010F0800F07D100F007030B70C0F17F0060
:10445000C01010707047C34303F0070308330B709C
:104460008038C01010707047012380F82830022374
:1044700080F829300D2380F82A3040F68E034362FD
:10448000704780F82C10002380F82D30022280F82D
:104490002E2080F82F3080F8301080F8313080F8EE
:1044A000322080F83330704790F8CC3113F0F00FA1
:1044B0000CD1032380F83030002380F83130022201
:1044C00080F8322080F833300020704790F8313087
:1044D000FF2B12D0013380F8313090F8323083F066
:1044E000020380F8323090F83030033B052B2FD890
:1044F000DFE803F0072E2E192024802380F83130C6
:10450000EBE790F8C63113F0020F08D0062380F8CD
:104510003030002380F8313080F83330D4E708237E
:1045200080F83030F5E7002380F83130082380F838
:104530003030C9E7082380F83030C5E790F83330D1
:1045400083F0010380F83330082380F83030BBE774
:10455000032380F83030002380F83130022280F8C5
:10456000322080F83330AFE7034690F8CF2102F0D5
:104570001F0190F8D1C190F8CE21120902F0020279
:1045800090F8CC0110F0200F14D093F830000628DA
:104590000AD093F8311061450AD06FF0110093F8FA
:1045A000323093420BD17047122905D10020704759
:1045B0000020F4E7002070476FF0100070476FF0A4
:1045C0001200F0E790F8CC3113F0F00F0CD1032378
:1045D00080F82C30002380F82D30022280F82E2025
:1045E00080F82F300020704790F82D30FF2B1AD024
:1045F000013380F82D3090F82E3083F0020380F8DC
:104600002E3090F82C30032B11D0042B1CD0032318
:1046100080F82C30002380F82D30022280F82E20E4
:1046200080F82F30DEE7802380F82D30E3E790F824
:104630002F3083F0010380F82F30012380F82D30D4
:10464000042380F82C30CDE790F82F3083F001035D
:1046500080F82F30C6E7037C0B70437C4B70837C63
:104660008B70C37CCB70037D0B71437D4B71837D5D
:104670008B71C37DCB71037E0B72437E4B72837E45
:104680008B72C37ECB72037F0B73437F4B73837F2D
:104690008B73C37FCB7390F820300B7490F821306C
:1046A0004B7490F822308B7490F82330CB7490F8D0
:1046B00024300B7590F825304B7590F826308B75AB
:1046C00090F82730CB7590F828300B7690F8293089
:1046D0004B7690F82A308B7690F82B30CB7690F88A
:1046E0002C300B7790F82D304B7790F82E308B775D
:1046F00090F82F30CB777047002308E0A1EB030C34
:104700000CF1FF3C02F80C00000A01339BB28B4213
:10471000F4D370470246002005E011F8012B42EA6D
:10472000002080B21A46531E9BB2002AF5D1704772
:10473000002308E0A1EB030C0CF1FF3C02F80C0095
:10474000001201339BB28B42F4D37047024691F9B9
:104750000030002B01DB002008E04FF0FF3005E0C7
:10476000000200B211F8012B10431A46531E9BB2EF
:10477000002AF5D17047002308E0A1EB030C0CF1EF
:10478000FF3C02F80C00000A01339BB28B42F4D3C9
:1047900070470246002004E011F8012B42EA002095
:1047A0001A46531E9BB2002AF6D17047024691F971
:1047B0000030002B01DB002007E04FF0FF3004E069
:1047C00011F8012B42EA00201A46531E9BB2002A20
:1047D000F6D1704708B50A4680F8C811832100F069
:1047E0004BF908BD08B50121FFF7F4FF08BD38B546
:1047F0000D46FFF71AFE04462846FFF71BFE04EBA2
:10480000C4042402A40904FB00F0800938BD0000A0
:1048100010B40001164C84FB004CC017C0EBAC1068
:10482000002919DB0021002A19DB00220A44520169
:104830000F4981FB0241D217C2EBA112104400FBC9
:1048400003F313F110010DD449110A4A93420BDC12
:1048500088B25DF8044B7047494209B2E3E752421F
:1048600012B2E3E71F31EFE74FF6FF70F1E700BF49
:10487000D34D6210EFFF1F004B0803EB0030B0FB7D
:10488000F1F07047A0FB010110F5006341F1000059
:104890001B0B43EA0050704770B10138002302E05F
:1048A000400801339BB230F0FF02F9D11B029BB2EA
:1048B00053FA80F080B270470020704708B5FFF7C8
:1048C000DBFFFFF7E9FF08BDC3B2000A03FA00F0FF
:1048D0000130704710B50C46FFF7F6FF2146FFF791
:1048E000D1FF10BD2DE9F843099CCBB381460F469B
:1048F00016469846A1791846FFF779FF0546014606
:104900004846FFF7B9FFFF2800D9FF20089BD87160
:1049100029463846FFF7D2FFC0F3072323706070A3
:1049200029463046FFF7CAFFC0F3072323716071A1
:10493000617A4046FFF75BFF054601463846FFF7C0
:10494000BDFFC0F30723A370E07029463046FFF790
:10495000B5FFC0F30723E37120720020BDE8F883A0
:104960006FF00E00FAE7072805D9C900C9B2081A86
:10497000713810707047C1F10F01C9B2C900C9B2D6
:104980000844107070470309137000F00F0008709E
:1049900070470901C9B201441170704703460322F0
:1049A00080F8E422002083F8E50283F8E60283F829
:1049B000E70283F8E80283F8E90283F8EA02C3F821
:1049C000EC02A3F8F00270470123537000209070AE
:1049D0009B234B74704790F8632180F8E82290F88D
:1049E000603180F8E93202F07F0280F8632103F041
:1049F000030390F8E4229200D2B2134480F86031AD
:104A0000012380F88D3190F8AE3280F8EA3280F8D8
:104A1000873100207047000010B584B08C4603F148
:104A20000A0490F8981302949BB201930092022317
:104A300062460448FCF7A1F908B904B010BD6FF054
:104A40000C00FAE7BC00002010B584B08C4603F1DE
:104A50000A0490F8981302949BB2019300920223E7
:104A600062460448FCF75EFA08B904B010BD6FF066
:104A70000C00FAE7BC00002000B583B08DF80720D9
:104A800001230DF10702FFF7C7FF03B05DF804FB38
:104A900008B50123FFF7D8FF08BD10B582B0144652
:104AA000022301AAFFF7D0FF30B99DF804209DF83A
:104AB000053043EA0223238002B010BD0A2927D91A
:104AC00038B505461446037803F07F031370437826
:104AD00003F00F035370837803F07F039370C37860
:104AE00003F00303D370037903F07F0313710532DE
:104AF0000221C088FFF700FE2B7AE3716B7A2372E4
:104B0000AB7A03F03F036372EB7AA372002038BDE7
:104B10006FF0090070470A2827D938B50D461446AA
:104B20000B7803F07F0313704B7803F00F0353707F
:104B30008B7803F07F039370CB7803F00303D3707B
:104B40000B7903F07F03137105310220FFF7E2FDBB
:104B5000E080EB7923722B7A63726B7A03F03F0368
:104B6000A372AB7AE372002038BD6FF00900704782
:104B700010B584B00C460B2301AA0121FFF764FF96
:104B800008B104B010BD224601A90B20FFF7C3FFF6
:104B9000F7E716294CD938B5044615460378137043
:104BA0004378537083789370C378D370037913710B
:104BB000437903F00F03537183799371C37903F041
:104BC0003F03D371037A03F0030313720932022106
:104BD0004089FFF791FD05F10B020221B4F90C00A9
:104BE000FFF7A6FD05F10D020221B4F90E00FFF753
:104BF0009FFD05F10F020221208AFFF77DFDB4F928
:104C0000120005F111020221C0F30C00FFF790FD24
:104C100005F113020221B4F91400FFF789FD05F133
:104C200015020221B4F91600FFF782FD002038BDFD
:104C30006FF009007047162847D938B50D4614465D
:104C40000B7813704B7853708B789370CB78D3704C
:104C50000B7913714B7903F00F0353718B799371B7
:104C6000CB7903F03F03D3710B7A03F00303137284
:104C700009310220FFF74EFD608105F10B01022092
:104C8000FFF764FDA08105F10D010220FFF75EFD35
:104C9000E08105F10F010220FFF73CFD208205F1C4
:104CA00011010220FFF752FDC0F30C00608205F1F4
:104CB00013010220FFF74AFDA08205F11501022031
:104CC000FFF744FDE082002038BD6FF00900704717
:104CD00010B586B00C4617236A460D21FFF7B4FEC7
:104CE00008B106B010BD224669461720FFF7A3FFA2
:104CF000F7E71F2968D938B5054614460221008810
:104D0000FFF7FAFCAB7803F00103A370EB7803F034
:104D10000F03E3702B7903F00F0323716B7903F01A
:104D20001F036371AB7903F07F03A371EB7903F089
:104D30007F03E3712B7A03F0010323726B7A6372B2
:104D4000AB7A03F00103A372EB7A03F00303E3727F
:104D50002B7B03F01F0323736B7B03F0030363734D
:104D6000AB7B03F00303A373EB7B03F00703E37355
:104D70002B7C03F01F0323746B7C03F0010363742B
:104D8000AB7CA374EB7CE3742B7D23756B7D637527
:104D9000AB7DA375EB7DE37504F118020221288B2E
:104DA000FFF7AAFCAB7EA376EB7EE3762B7F03F0C6
:104DB0000F0323776B7F6377AB7F03F00F03A3773A
:104DC000EB7FE377002038BD6FF0090070471529AD
:104DD0003FD938B5054614460378137043785370AD
:104DE00083789370C37803F07F03D3708088043294
:104DF0000221C0F30B00FFF77FFCAB7903F07F03C8
:104E0000A371EB79E3712B7A23726B7A03F00103C0
:104E10006372AB7A03F00703E37204F10C02022120
:104E2000A889FFF769FC04F10E020221E889FFF767
:104E300063FC04F110020221288AFFF75DFCAB7CC1
:104E4000A374EB7CE3742B7D23756B7D637500206D
:104E500038BD6FF00900704716293DD938B50546B1
:104E60001446037803F00F0313704378537083786C
:104E700003F00F039370C378D370037903F00F032B
:104E8000137143795371837903F03F039371C379AD
:104E900003F00F03D371037A1372437A03F03F03D5
:104EA00053720A3202214089FFF726FC04F10C02FA
:104EB0000221A889FFF720FCAB7BA373EB7BE37394
:104EC00004F1120204212869FFF755FC2B7D03F041
:104ED0000103A375002038BD6FF009007047112948
:104EE0003CD938B504461546037803F0030302F8AD
:104EF000013B02214088FFF7FFFBEA1C0221A0884A
:104F0000FFF7FAFBA37903F001036B71E37903F078
:104F10000703AB71237AEB71637A2B72A37A03F0E8
:104F20007F036B72E37A03F07F03AB72237B03F0A2
:104F30000303EB72637B03F003032B73A37B03F088
:104F40000F036B73E37BAB73237CEB73637C2B747A
:104F5000A37C03F003036B74002038BD6FF00900DD
:104F60007047042913D9037803F0010313704378C1
:104F700003F001035370837803F001039370C37847
:104F800003F00303D37003791371002070476FF0AF
:104F9000090070472B2840F2898038B50D46144629
:104FA0000B7803F03F0313704B7853708B7803F04A
:104FB0000F039370CB78D37004310220FFF7AAFB64
:104FC000A080A91D0220FFF7A5FBE08005F10801E4
:104FD0000220FFF79FFB208105F10A010220FFF765
:104FE00099FB608105F10C010220FFF793FBA08182
:104FF00005F10E010220FFF78DFBE08105F11001A4
:105000000220FFF787FB208205F112010220FFF743
:1050100081FB608205F114010220FFF77BFBA08277
:1050200005F116010220FFF775FBE08205F118017A
:105030000220FFF76FFB208305F11A010220FFF722
:1050400069FB608305F11C010220FFF763FBA0836D
:1050500005F11E010220FFF75DFBE08305F1200151
:105060000220FFF757FB208405F122010220FFF701
:1050700051FB608405F124010220FFF74BFBA08463
:1050800005F126010220FFF745FBE08405F1280128
:105090000220FFF73FFB208595F82A3084F82A305C
:1050A00095F82B3084F82B30002038BD6FF00900C4
:1050B0007047202835D938B50D4614460420FFF72F
:1050C00068FB2060291D0420FFF763FB606005F189
:1050D00008010420FFF76AFBA06005F10C01042021
:1050E000FFF757FBE06005F110010420FFF751FBCB
:1050F000206105F114010420FFF74BFB606105F10D
:1051000018010420FFF752FBA06105F11C010420E7
:10511000FFF73FFBE06195F8203084F82030002055
:1051200038BD6FF009007047372840F2D38038B59A
:105130000D4614460220FFF7EDFA2080AB7803F00D
:105140007F03A370EB7803F03F03E3702B7903F048
:10515000030323716B7903F001036371AB7903F0EF
:105160003F03A371EB7903F03F03E37105F10801FD
:105170000220FFF7CFFAC0F309002081AB7A03F0D9
:105180000303A372EB7A03F00303E3722B7B03F0B8
:105190000F0323736B7B03F007036373AB7B03F095
:1051A0000103A373EB7B03F00303E3732B7C2374F2
:1051B0006B7C637405F112010220FFF7ABFAC0F3B8
:1051C0000B00608205F116010220FFF7A3FAA0820E
:1051D00005F118010220FFF79DFAE082AB7E03F093
:1051E00001032376EB7E03F0070363762B7FA37620
:1051F0006B7FE376AB7F03F07F032377EB7F03F0D6
:105200007F03637795F8203003F00303A37795F8C5
:10521000213003F00F03E37795F8223084F8203033
:1052200095F8233084F8213095F8243084F8223022
:1052300095F8253003F0010384F8233095F82630E3
:1052400003F0030384F8243095F8273003F01F039C
:1052500084F8253095F8283003F01F0384F82630B1
:1052600095F8293003F01F0384F8273095F82A3089
:1052700003F0010384F8283095F82B3003F0010384
:1052800084F8293095F82C3003F0030384F82A3091
:1052900095F82D3003F03F0384F82B3005F12E01F3
:1052A0000420FFF776FAC0F31100E06205F1320145
:1052B0000420FFF76EFA206395F8363003F00103FF
:1052C00084F8343095F8373003F0010384F8353032
:1052D000002038BD6FF009007047302840F29F80F1
:1052E00038B50D4614460B7813704B7853708B7895
:1052F000937003310220FFF70DFAA0806B7903F061
:105300007F03A371AB7903F00703E371EB7903F03B
:10531000070323722B7A03F03F0363726B7A03F067
:105320003F03A372AB7A03F00103E372EB7A03F05D
:105330007F0323732B7B03F0010363736B7B03F009
:105340003F03A373AB7B03F03F03E373EB7B237457
:105350002B7C63746B7CA374AB7CE374EB7C237554
:105360002B7D63756B7DA375AB7DE375EB7D23763C
:105370002B7E63766B7EA376AB7EE376EB7E237724
:105380002B7F63776B7FA377AB7FE377EB7F84F82B
:10539000203095F8203084F8213095F8213084F8B9
:1053A000223095F8223084F8233095F8233084F8A1
:1053B000243095F8243084F8253095F8253084F889
:1053C000263095F8263084F8273095F8273084F871
:1053D000283095F8283084F8293095F8293084F859
:1053E0002A3095F82A3084F82B3095F82B3084F841
:1053F0002C3095F82C3084F82D3095F82D3084F829
:105400002E3095F82E3084F82F3095F82F3084F810
:10541000303095F8303084F83130002038BD6FF0EE
:105420000900704710B58EB00C46312301AA40F236
:105430000F11FFF709FB08B10EB010BD224601A9FC
:105440003120FFF74AFFF7E730B583B00C46002361
:105450008DF8073090F8703113F0100F0FD101253F
:105460000DF107023121FFF713FB9DF8073003F020
:1054700001039D4205D00023237003B030BD0025F9
:10548000EEE701232370F8E710B503460C4A0D49F7
:105490000D48006840B10C4800680344521A93421A
:1054A00006D8094A136010BD0748084C0460F2E7AB
:1054B00000F038F80C2303604FF0FF30F3E700BF33
:1054C00000C00020000400009C010020B00100206A
:1054D000DFF834D0FDF734FA0C480D490D4A0023AB
:1054E00002E0D458C4500433C4188C42F9D30A4A99
:1054F0000A4C002301E013600432A242FBD300F007
:1055000017F8FBF7CBF8FEE700C0002000000020F2
:10551000A0000020585F0008A0000020B00100207B
:10552000FEE70000014B1868704700BF3C000020F8
:1055300070B50D4D0D4C641BA4100026A64209D178
:105540000B4D0C4C00F08EFC641BA4100026A642F0
:1055500005D170BD55F8043B98470136EEE755F884
:10556000043B98470136F2E7485F0008485F0008AF
:10557000485F00084C5F00080A44914200F1FF3385
:1055800000D1704710B511F8014B03F8014F91425B
:10559000F9D110BD02440346934200D1704703F88D
:1055A000011BF9E70EB400B59CB01DAB029006904C
:1055B0006FF00041094807910491094953F8042B01
:1055C00005910068019302A900F068F8029B00228F
:1055D0001A701CB05DF804EB03B070473C0000206B
:1055E0000802FFFF2DE9F0478E689E4282460C4676
:1055F00090461F4638D88A8912F4906F32D02568B9
:105600000969A5EB0109656905EB450505EBD5754C
:1056100001334B446D109D4238BF1D46530531D5B3
:10562000294600F055FB064650B90C23CAF8003055
:10563000A38943F04003A3814FF0FF30BDE8F0871A
:1056400021694A46FFF798FFA38923F4906343F04A
:105650008003A381266165614E44A5EB09052660A0
:10566000A5603E46BE4200D93E46206832464146CD
:1056700000F0A8FAA3689B1BA3602368334423604F
:105680000020DBE72A4600F097FB06460028E1D120
:105690002169504600F0B0FAC7E700002DE9F04F4D
:1056A00098468B891B069DB007460D4614460ED5BD
:1056B0000B6963B9402100F00BFB2860286120B919
:1056C0000C233B604FF0FF30D1E040236B6100239F
:1056D000099320238DF82930CDF80C803023DFF892
:1056E000A8818DF82A304FF0010923469A4613F815
:1056F000012B0AB1252AF9D1BAEB040B0BD05B467A
:10570000224629463846FFF76DFF013000F0AA8097
:10571000099A5A4409929AF80030002B00F0A280AE
:1057200000234FF0FF32CDE905230AF1010A04936B
:1057300007938DF853301A935446052214F8011B31
:105740005148FAF74DFD049AD8B9D00644BF20233A
:105750008DF85330110744BF2B238DF853309AF83E
:1057600000302A2B15D0079A544600204FF00A0C1F
:10577000214611F8013B303B092B4ED9B0B10792BD
:1057800014E0A0EB080309FA03F313430493A246C1
:10579000D2E7039B191D1B680391002BBBBF5B4223
:1057A00042F0020207930793B8BF049223782E2B8E
:1057B0000CD163782A2B35D1039B1A1D1B680392E9
:1057C000002BB8BF4FF0FF3302340593DFF8C8A0B9
:1057D000217803225046FAF703FD40B14023A0EBA5
:1057E0000A0003FA00F0049B03430134049314F805
:1057F000011B26488DF828100622FAF7F1FC002834
:1058000038D0234B1BBB039B073323F0070308331C
:105810000393099B3344099367E70CFB02320C4660
:105820000120A5E700230134059319464FF00A0C27
:10583000204610F8012B303A092A03D9002BC5D095
:105840000591C3E70CFB012104460123F0E703ABFC
:1058500000932A460F4B04A93846AFF30080421C40
:105860000646D6D1AB895B063FF52CAF09981DB033
:10587000BDE8F08F03AB00932A46064B04A93846D7
:1058800000F07AF8EBE700BF0C5F0008165F000835
:1058900000000000E5550008125F00082DE9F04700
:1058A000164699468A680B69DDF820809342B8BF96
:1058B0001346336091F8432007460C460AB1013382
:1058C00033602368990642BF33680233336025682A
:1058D00015F0060506D104F1190AE36832689B1A2F
:1058E000AB4226DC94F84320131E226818BF012324
:1058F00092062BD404F1430249463846C047013092
:105900001ED02368E568326803F00603042B08BF45
:10591000AD1AA36822690CBF25EAE57500259342FC
:10592000C4BF9B1AED1800261A34B5421AD10020C4
:1059300008E00123524649463846C047013003D1AA
:105940004FF0FF30BDE8F0870135C6E7E1185A1C7B
:10595000302081F84300224494F8451082F8431027
:105960000233C7E70123224649463846C047013083
:10597000E6D00136D9E700002DE9FF470F7E0C9DE8
:10598000782F914680460C469A4601F1430207D88B
:10599000622F0AD8002F00F0D880582F00F0A38083
:1059A00004F1420584F842703AE0A7F16303152B35
:1059B000F6D801A151F823F0115A0008255A000821
:1059C000A1590008A1590008A1590008A1590008CF
:1059D000255A0008A1590008A1590008A15900083A
:1059E000A1590008315B0008555A0008135B0008F4
:1059F000A1590008A1590008535B0008A1590008EB
:105A0000555A0008A1590008A15900081B5B00085D
:105A10002B681A1D1B682A6004F1420584F8423085
:105A20000123A3E020682968060601F104030AD5D2
:105A30000E682B60002E03DA2D23764284F8433063
:105A40005E480A2319E00E682B6010F0400F18BF63
:105A500036B2EFE72B682068191D2960010601D5D1
:105A60001E6802E04606FBD51E8854486F2F0CBF07
:105A700008230A23002184F843106568A560002DDF
:105A8000A2BF216821F0040121600EB9002D4DD084
:105A90001546B6FBF3F103FB1167C75D05F8017D01
:105AA0003746BB420E46F4D9082B0BD12368DE07DC
:105AB00008D5236961689942DEBF302305F8013CAF
:105AC00005F1FF35521B2261CDF800A04B4603AA19
:105AD00021464046FFF7E2FE01304CD14FF0FF3047
